{
  "transactions": [
    {
      "hash": "0x454dacf6917fa6da6b6d166b5912c4130237dec9854615c4e0c407200c58ca9f",
      "transactionType": "CALL",
      "contractName": null,
      "contractAddress": "0xe07c87d9b4b0622383265db460df7d8829fd90c0",
      "function": "mint(address,uint256)",
      "arguments": [
        "0x28ff8e457feF9870B9d1529FE68Fbb95C3181f64",
        "1000000000000000000000000000"
      ],
      "transaction": {
        "from": "0x37111d10aebbccd66c48a11220d6ece9c6f23ac2",
        "to": "0xe07c87d9b4b0622383265db460df7d8829fd90c0",
        "gas": "0x2823b",
        "value": "0x0",
        "input": "0x40c10f1900000000000000000000000028ff8e457fef9870b9d1529fe68fbb95c3181f640000000000000000000000000000000000000000033b2e3c9fd0803ce8000000",
        "nonce": "0x1b",
        "chainId": "0x90f7"
      },
      "additionalContracts": [],
      "isFixedGasLimit": false,
      "zk": {
        "factoryDeps": []
      }
    }
  ],
  "receipts": [
    {
      "status": "0x1",
      "cumulativeGasUsed": "0x0",
      "logs": [
        {
          "address": "0x000000000000000000000000000000000000800a",
          "topics": [
            "0xddf252ad1be2c89b69c2b068fc378daa952ba7f163c4a11628f55a4df523b3ef",
            "0x00000000000000000000000037111d10aebbccd66c48a11220d6ece9c6f23ac2",
            "0x0000000000000000000000000000000000000000000000000000000000008001"
          ],
          "data": "0x000000000000000000000000000000000000000000000000004262637ceb8f00",
          "blockHash": "0xd8de8a629fb16aae89f5fc68ac80a6279383e551c22af460e927ae8168653270",
          "blockNumber": "0x57ad",
          "blockTimestamp": "0x66e0946b",
          "transactionHash": "0x454dacf6917fa6da6b6d166b5912c4130237dec9854615c4e0c407200c58ca9f",
          "transactionIndex": "0x0",
          "logIndex": "0x0",
          "removed": false
        },
        {
          "address": "0xe07c87d9b4b0622383265db460df7d8829fd90c0",
          "topics": [
            "0xddf252ad1be2c89b69c2b068fc378daa952ba7f163c4a11628f55a4df523b3ef",
            "0x0000000000000000000000000000000000000000000000000000000000000000",
            "0x00000000000000000000000028ff8e457fef9870b9d1529fe68fbb95c3181f64"
          ],
          "data": "0x0000000000000000000000000000000000000000033b2e3c9fd0803ce8000000",
          "blockHash": "0xd8de8a629fb16aae89f5fc68ac80a6279383e551c22af460e927ae8168653270",
          "blockNumber": "0x57ad",
          "blockTimestamp": "0x66e0946b",
          "transactionHash": "0x454dacf6917fa6da6b6d166b5912c4130237dec9854615c4e0c407200c58ca9f",
          "transactionIndex": "0x0",
          "logIndex": "0x1",
          "removed": false
        },
        {
          "address": "0x000000000000000000000000000000000000800a",
          "topics": [
            "0xddf252ad1be2c89b69c2b068fc378daa952ba7f163c4a11628f55a4df523b3ef",
            "0x0000000000000000000000000000000000000000000000000000000000008001",
            "0x00000000000000000000000037111d10aebbccd66c48a11220d6ece9c6f23ac2"
          ],
          "data": "0x000000000000000000000000000000000000000000000000001dbe9ee6267800",
          "blockHash": "0xd8de8a629fb16aae89f5fc68ac80a6279383e551c22af460e927ae8168653270",
          "blockNumber": "0x57ad",
          "blockTimestamp": "0x66e0946b",
          "transactionHash": "0x454dacf6917fa6da6b6d166b5912c4130237dec9854615c4e0c407200c58ca9f",
          "transactionIndex": "0x0",
          "logIndex": "0x2",
          "removed": false
        }
      ],
      "logsBloom": "0x00000000000400000000000000000000000000004000000000000000000040000000000000000000000000000000000000000000000000000000000000000000000000000000040008000008000000000000000000000000000000000000081000000000020000000000000000000800000002000000000000000010000000000000000000000000000004200000000000000000000000000000000000000000000000000000100000000000000000000000000000000000004000800000000000000002008000008000000000000000000000000000000000000000000020000000000000000000000000000000000000000000000000000000000000000000",
      "type": "0x71",
      "transactionHash": "0x454dacf6917fa6da6b6d166b5912c4130237dec9854615c4e0c407200c58ca9f",
      "transactionIndex": "0x0",
      "blockHash": "0xd8de8a629fb16aae89f5fc68ac80a6279383e551c22af460e927ae8168653270",
      "blockNumber": "0x57ad",
      "gasUsed": "0x25fa1",
      "effectiveGasPrice": "0xf6fc9b700",
      "from": "0x37111d10aebbccd66c48a11220d6ece9c6f23ac2",
      "to": "0xe07c87d9b4b0622383265db460df7d8829fd90c0",
      "contractAddress": null,
      "root": "0xd8de8a629fb16aae89f5fc68ac80a6279383e551c22af460e927ae8168653270",
      "l1BatchNumber": null,
      "l1BatchTxIndex": null,
      "l2ToL1Logs": []
    }
  ],
  "libraries": [],
  "pending": [],
  "returns": {},
  "timestamp": 1725994111,
  "chain": 37111,
  "commit": "3ad4913"
}