{
  "transactions": [
    {
      "hash": "0x2fdf4babd7291d23da14a55546455f696c3fe50da17319b6623f52bd8c34841f",
      "transactionType": "CALL",
      "contractName": null,
      "contractAddress": "0xf8a82068870e9488bf641ec4c1bdfd24a11d0a2c",
      "function": "mint(address,uint256)",
      "arguments": [
        "0x28ff8e457feF9870B9d1529FE68Fbb95C3181f64",
        "1000000000000000000000000000"
      ],
      "transaction": {
        "from": "0x37111d10aebbccd66c48a11220d6ece9c6f23ac2",
        "to": "0xf8a82068870e9488bf641ec4c1bdfd24a11d0a2c",
        "gas": "0x2823b",
        "value": "0x0",
        "input": "0x40c10f1900000000000000000000000028ff8e457fef9870b9d1529fe68fbb95c3181f640000000000000000000000000000000000000000033b2e3c9fd0803ce8000000",
        "nonce": "0x1a",
        "chainId": "0x90f7"
      },
      "additionalContracts": [],
      "isFixedGasLimit": false,
      "zk": {
        "factoryDeps": []
      }
    }
  ],
  "receipts": [
    {
      "status": "0x1",
      "cumulativeGasUsed": "0x0",
      "logs": [
        {
          "address": "0x000000000000000000000000000000000000800a",
          "topics": [
            "0xddf252ad1be2c89b69c2b068fc378daa952ba7f163c4a11628f55a4df523b3ef",
            "0x00000000000000000000000037111d10aebbccd66c48a11220d6ece9c6f23ac2",
            "0x0000000000000000000000000000000000000000000000000000000000008001"
          ],
          "data": "0x000000000000000000000000000000000000000000000000004349d16f112100",
          "blockHash": "0xd97d32627ba09b718ca8862c9203a62b3982590aac5dbf49f14f57f4149b4f33",
          "blockNumber": "0x57ab",
          "blockTimestamp": "0x66e0933e",
          "transactionHash": "0x2fdf4babd7291d23da14a55546455f696c3fe50da17319b6623f52bd8c34841f",
          "transactionIndex": "0x0",
          "logIndex": "0x0",
          "removed": false
        },
        {
          "address": "0xf8a82068870e9488bf641ec4c1bdfd24a11d0a2c",
          "topics": [
            "0xddf252ad1be2c89b69c2b068fc378daa952ba7f163c4a11628f55a4df523b3ef",
            "0x0000000000000000000000000000000000000000000000000000000000000000",
            "0x00000000000000000000000028ff8e457fef9870b9d1529fe68fbb95c3181f64"
          ],
          "data": "0x0000000000000000000000000000000000000000033b2e3c9fd0803ce8000000",
          "blockHash": "0xd97d32627ba09b718ca8862c9203a62b3982590aac5dbf49f14f57f4149b4f33",
          "blockNumber": "0x57ab",
          "blockTimestamp": "0x66e0933e",
          "transactionHash": "0x2fdf4babd7291d23da14a55546455f696c3fe50da17319b6623f52bd8c34841f",
          "transactionIndex": "0x0",
          "logIndex": "0x1",
          "removed": false
        },
        {
          "address": "0x000000000000000000000000000000000000800a",
          "topics": [
            "0xddf252ad1be2c89b69c2b068fc378daa952ba7f163c4a11628f55a4df523b3ef",
            "0x0000000000000000000000000000000000000000000000000000000000008001",
            "0x00000000000000000000000037111d10aebbccd66c48a11220d6ece9c6f23ac2"
          ],
          "data": "0x00000000000000000000000000000000000000000000000000161b7841b46000",
          "blockHash": "0xd97d32627ba09b718ca8862c9203a62b3982590aac5dbf49f14f57f4149b4f33",
          "blockNumber": "0x57ab",
          "blockTimestamp": "0x66e0933e",
          "transactionHash": "0x2fdf4babd7291d23da14a55546455f696c3fe50da17319b6623f52bd8c34841f",
          "transactionIndex": "0x0",
          "logIndex": "0x2",
          "removed": false
        }
      ],
      "logsBloom": "0x00000000000400000000000000000000000000000000000000000000000040000000000000000000000000000000000000000000000000000000000000000000000000008000040000000008000000000000000000000000000000000000080000000000020000000000000000000800000002000000000000000010000000000000000000000000000004220000000000000000000000000000000000000000000000000000100000000000000000000000000000000000004000800000000008000002008000008000000000000000000000000000000000000000000020000000000000000000000000000000000000000000000000000000000000000000",
      "type": "0x71",
      "transactionHash": "0x2fdf4babd7291d23da14a55546455f696c3fe50da17319b6623f52bd8c34841f",
      "transactionIndex": "0x0",
      "blockHash": "0xd97d32627ba09b718ca8862c9203a62b3982590aac5dbf49f14f57f4149b4f33",
      "blockNumber": "0x57ab",
      "gasUsed": "0x2ed47",
      "effectiveGasPrice": "0xf6fc9b700",
      "from": "0x37111d10aebbccd66c48a11220d6ece9c6f23ac2",
      "to": "0xf8a82068870e9488bf641ec4c1bdfd24a11d0a2c",
      "contractAddress": null,
      "root": "0xd97d32627ba09b718ca8862c9203a62b3982590aac5dbf49f14f57f4149b4f33",
      "l1BatchNumber": null,
      "l1BatchTxIndex": null,
      "l2ToL1Logs": []
    }
  ],
  "libraries": [],
  "pending": [],
  "returns": {},
  "timestamp": 1725993925,
  "chain": 37111,
  "commit": "3ad4913"
}